:1000000000000420750300005D0300005F03000092
:1000100061030000630300006503000000000000AE
:100020000000000000000000000000006703000066
:1000300069030000000000006B0300006D03000076
:10004000151E00006F03000085200000C92300007A
:100050006F0300006F030000D91E00006F03000053
:100060006F0300006F0300006F0300006F030000C8
:100070006F0300006F0300006F0300006F030000B8
:100080006F0300006D0E00006F0300006F0300009F
:10009000090F00006F0300006F0300006F030000F2
:1000A0006F0300006F0300006F0300006F03000088
:1000B0006F0300006F03000000000000000000005C
:1000C0006F0300006F0300006F0300006F03000068
:1000D0006F0300006F0300006F0300006F03000058
:1000E0006F0300006F0300006F03000000000000BA
:1000F000000000006F030000000000006F0300001C
:1001000000000000000000000000000000000000EF
:1001100000000000000000000000000000000000DF
:1001200000000000000000000000000000000000CF
:1001300000000000000000000000000000000000BF
:1001400000000000000000000000000000000000AF
:10015000000000000000000000000000000000009F
:10016000000000000000000000000000000000008F
:10017000000000000000000000000000000000007F
:10018000000000000000000000000000000000006F
:10019000000000000000000000000000000000005F
:1001A000000000000000000000000000000000004F
:1001B000000000000000000000000000000000003F
:1001C000000000000000000000000000000000002F
:1001D000000000000000000000000000000000001F
:1001E000000000000000000000000000000000000F
:1001F00000000000000000000000000000000000FF
:10020000354936480A1A02D0072291438D463449AF
:1002100034480A1A06D00722914381F30988022242
:1002200082F3148830483149314A00F044F83148AB
:100230003149324A00F03FF831483249324A00F041
:100240003AF832483249334A00F035F832483349F7
:10025000334A00F030F833483349344A00F02BF881
:1002600033483449344A00F026F8344834490022EF
:1002700000F02CF833483449002200F027F83348C6
:100280003349091A082902DB002202604160314A21
:1002900090471F481F49884205D00268043003B4C4
:1002A000904703BCF7E700208646EC46002000217B
:1002B000294A9047FEE7884207D0521A05D00378B2
:1002C00001300B700131013AF9D17047884202D0F8
:1002D00002700130FAE770470000042000E00320BC
:1002E00000000420000004205057000000000020FF
:1002F0003C000020D4030000D4030000A44F000001
:100300005057000000000020000000204050000076
:10031000405000004050000040500000405000009D
:100320004050000040500000405000005057000076
:100330008C5700003C0000203C0000203C000020C6
:10034000501200205012002054120020541200209D
:10035000543200209D030000D9310000FEE7FEE783
:10036000FEE7FEE7FEE7FEE7FEE7FEE7FEE7FEE765
:10037000704700BF1048804710484FF0070188437E
:1003800085460F4880470F48016841F470010160BD
:10039000BFF34F8FBFF36F8FFFF732BF0A480B4990
:1003A0000B4A884207D0521A05D0037801300B70EF
:1003B0000131013AF9D170477103000000000420B7
:1003C0003934000088ED00E04050000000000020BB
:0403D0000000002009
:1003D4000048704748120020F0B595B01D461646F7
:1003E40008460C4601F0F2F91A9B0D93CDE9086515
:1003F40000252B46082205A920460A958DF82C5085
:100404000C9501F000FA079B0293069B03939DF859
:1004140014308DF8115003F00302012A1DD1BDF8E8
:100424001420059DC3F3C203C2F383168DF8103064
:10043400B20008230EA9204601F0E5F9C5F395257D
:1004440008AB0093324602AB0EA9284600F0DCFB51
:10045400204601F0BFF915B0F0BD022AF8D1BDF86D
:100464001650C3F3C203C5F389158DF8103008275D
:10047400082D2E4628BF08263B4632460EA92046A4
:1004840001F0C1F9AD1B08AB02AA31460EA83744EE
:1004940000F01EFC002DEBD1DAE70000014B012235
:1004A4001A7070477D0000207047000070B5124D2F
:1004B40006460FCD88B06C460FC495E80F00002E99
:1004C40084E80F004FF0FF334FF00602CDE900231C
:1004D400CDE90233094A0A484FF0EB7308BF002202
:1004E4006946069301F056FC08B100F04DFC054B3B
:1004F4001E7008B070BD00BF40500000A104000091
:10050400000000203C00002007B5044B0093044A7F
:100514004023FFF761FF03B05DF804FB29050000E9
:100524003D00002038B50D4B0D4D002018700D48CE
:1005340004782D5DD2B21C4665B1043002F026FD6C
:1005440008B100F021FC084B1A7812B12378002B73
:10055400FBD038BD0C3002F007FBF1E77D00002032
:1005640064070020000000203C00002008B5084873
:10057400084A0378D35C3BB1043002F0B3FCBDE815
:1005840008400020FFF792BF0C3002F099FAF6E71A
:1005940000000020640700200120FFF787BF00004F
:1005A40008B5FFF7F9FF0448042100F095FA034B5E
:1005B40001225A7108BD00BF085000001400002039
:1005C400037813F0040216D003F00303012B03D0C5
:1005D400022B09D0012070470A6800880232C0F358
:1005E400831002440A60F5E70B684288023303EB88
:1005F40092130B60EEE71046704700002DE9F04FB0
:10060400044685B0861C00200F46154600F0EAFD1E
:10061400454801683960D0E90132134401335B1A5B
:10062400824600F21C4700F5836900F21448B34285
:100634001BD30020002D72D004F00F039B0143F064
:10064400050363F30F00DAF80020DAF808301340EA
:10065400033316444AF823000020CAF8006000F06F
:10066400C3FD012005B0BDE8F08F0121384600F03C
:10067400E0FD484600F0F5FD404600F0F2FDDAF8F2
:100684000400DAF808B0009000EA0B0003300AEB2B
:1006940080006946FFF794FF009B50BB0BEA0302FE
:1006A4000AEB820203F1020CD2680192013303EADD
:1006B4000B0B0AEB8B0B02F00302012ADBF80C1084
:1006C400CDF800C023D0022A16D08346404600F05D
:1006D400CBFD10B1009BCAF804305946384600F0EF
:1006E400A8FDDAE901231344DAF8002001339B1A48
:1006F4009DE70BEA0300C9E7BDF80630C3F389138D
:1007040003334FEA114B0CEB93030093DEE7BDF880
:100714000430C3F383134FEA114B6344F5E7A40594
:1007240044F006008FE700BF500100200B4B0C483B
:10073400FF2210B59A600022C3F81824C3E90022EE
:10074400C3F8142483F8202400F0F9FF044610B9F8
:10075400044801F027F9204610BD00BF50010020D5
:10076400185000009450000030B50A4C71B10A4A88
:100774000A49121BD20800239A4201D1002030BD3D
:1007840031F82350854202D00133F5E7034654F88B
:100794003300F4E7B84F00000850000000000020C8
:1007A400094B013903EBC000032909D8DFE801F044
:1007B4000A020406042070470079704740797047A4
:1007C4000020704702207047B84F0000034BD3E964
:1007D4000030C31A58425841704700BF50010020EE
:1007E4002DE9F04385B0FFF7F1FF0646002840F0FD
:1007F400F5807B4DC5F81804BFF34F8F6B68AC6868
:1008040000932340033305EB83006946FFF7D8FECA
:10081400009B18B1D5F81824002A5FD004EA03021B
:10082400991C013305EB8202234005EB8303D26854
:10083400DB68029302F00303022B0192009160D162
:10084400BDF806306748C3F38917502FB84628BF50
:100854004FF0500868F38F1308F10801ADF8063023
:1008640000F085FF0646002800F0A38000F0AEFFEC
:100874000023082201A9304600F0BBFF009924EAB6
:1008840001020132B8EB820F4FEA820332D95FFAD8
:1008940088F85BB32140DCB2A8EB040803315FFAAB
:1008A40088F9A046504C05EB8101082342463046A6
:1008B40000F09FFF34B108F108034A462146304650
:1008C40000F097FF009B033703EB97070097D5F8D9
:1008D4001834002B49D1D5F8104459E02A689A42BB
:1008E4008FD86A60304605B0BDE8F0833E491C46A7
:1008F4009946DAE70C40E11C0823424605EB8101E6
:10090400DDE7012B55D1BDF804303648C3F383111C
:10091400062928BF062161F3891302318900ADF845
:10092400043000F024FF0646002842D000F04EFFB9
:100934000023082201A9304600F05BFF0027BDF820
:100944000420C2F38312BB00974203F10803BED212
:1009540000994A1C21400331009205EB81010422D5
:10096400304600F046FF0137E9E7304600F032FF39
:10097400FFF72CFF80F00100C6B2B3E7E3685B79B0
:1009840023B1236831461B6820469847E3681C68F6
:10099400002CF3D1304600F01DFF204600F022FC6D
:1009A400D5F818340BB9009B6B60002000F01CFCD8
:1009B400DEE7D5F8104454B90C4B0D480D49C01A64
:1009C400C008000440F0020000F062F8D0E7236899
:1009D40020469B689847E3681C68ECE7002681E79B
:1009E40050010020185000005C010020B84F0000A6
:1009F400E84F00007D5000002DE9F74F224D0446DA
:100A04000F46924601A901221846D5F808909B4644
:100A1400FFF7F4FD20B3019E4FF00008B21CD84547
:100A240008EB020126D11948002100F0DFFB80F316
:100A34001000000440EA1440E400731C04F038047D
:100A440003EA090306EA090644F0010405EB8303FB
:100A5400033644EA881444EA8724D86045F82640DB
:100A640095F820341BB1FFF7BBFE0028FBD103B07F
:100A7400BDE8F08F09EA010105EB81015AF828303D
:100A8400CB6008F10108CAE7500100206C05002082
:100A940000231A46FFF7B0BF07B50123019201AA4C
:100AA400FFF7AAFF03B05DF804FB07B5CDE9002307
:100AB40002236A46FFF7A0FF03B05DF804FB1FB5ED
:100AC400CDE90123069B039301AA0323FFF794FFB7
:100AD40005B05DF804FB000030B50F49D1F81024CF
:100AE40003460020144634B9DC6820714AB9C1F8C1
:100AF4001034226030BDE4682579854206D024682C
:100B0400F1E7D268116821601360F3E701300A2825
:100B1400E8D14FF0FF30EDE750010020094A38B525
:100B24000123D2F8104482F820341D4604B938BD9C
:100B3400E3685D71236820465B689847E3681C6836
:100B4400F4E700BF5001002007B503460846197AB0
:100B5400052911D05B7A2BB1094A0A49019000F0AA
:100B6400DDFB01980849019000F0D8FB019803B01F
:100B74005DF804EB00F0C7BB002AF8D0F2E700BF31
:100B8400A0500000A55000002A52000030B5C388D0
:100B940085B004460D4633B1144A00921449154AEF
:100BA400284600F0BBFB217A05291DD0637A4BB19E
:100BB400A088FFF7F5FD104B104953F82020284674
:100BC40000F0ACFB227A0E4BA08853F8222003924B
:100BD4000021FFF7C9FD039A0A490346284605B0D8
:100BE400BDE8304000F09ABB05B030BDA050000015
:100BF400B0500000A85000002C510000A550000087
:100C040050510000C85000002DE9F04385B01F4644
:100C14000C9D002395F80C902B7306460C469046C9
:100C240029463846FFF7B2FFB8F1060F09D8DFE8C6
:100C340008F00412181F283340003146284600F0FB
:100C44006DFB002229463846FFF77EFF85F80C909D
:100C540005B0BDE8F08322683146284600F05EFB0B
:100C6400EFE7D4E900233146284600F057FBE8E7D4
:100C7400A36800933146D4E90023284600F04EFBD4
:100C8400DFE7E3680193A36800933146D4E90023C6
:100C9400284600F043FBD4E723690293E3680193F9
:100CA400A36800933146D4E90023284600F036FBBC
:100CB400C7E76369039323690293E3680193A36815
:100CC40000933146D4E90023284600F027FBB8E717
:100CD40008292DE9F74F80460E4617461C463CD896
:100CE400002593F80C901D7319461046FFF74EFF2C
:100CF400DFF888A0DFF888B0AE4231D918F80520B3
:100D04005946204600F00AFB0135082DF4D1194953
:100D1400194DDFF870A0204600F000FB4FF0000BE7
:100D24005E4522D918F80B207E2A05D81046019278
:100D340003F080F8019A00B92E225146204600F0B3
:100D4400EDFA0BF1010BBBF1080FE9D101222146A9
:100D54003846FFF7F9FE84F80C9003B0BDE8F08F35
:100D64005146204600F0DAFACEE72946204600F044
:100D7400D5FAE6E7DC500000DA500000D850000055
:100D8400D2500000DE5000001FB50021039001AADC
:100D940044F20100CDE9011100F004F805B05DF85A
:100DA40004FB000010B572B6FFF7B8FEFFF718FD9C
:100DB4000028FBD1104B114C1149E41AE408240417
:100DC40044F00100FFF764FE0E4B1B68DB0700D5FF
:100DD40000BE0D4944F00200FFF75AFEBFF34F8FE7
:100DE4000A490B4BCA6802F4E0621343CB60BFF3B9
:100DF4004F8F00BFFDE700BFB84F0000E84F000071
:100E040064510000F0ED00E07051000000ED00E0DE
:100E14000400FA05024B4FF43C6043F00103184709
:100E24008051000038B50C4B0C4C4FF40032C3F821
:100E3400802001254FF48033C4F84833C4F80833C4
:100E44006560FFF7E7FF064BA56000241C60FFF711
:100E5400E1FF044B1C7038BD00E100E000100140CC
:100E64002807002019070020F8B51F4B1F491B68ED
:100E74000025C1F84051C1F84451C1F84851C1F8A6
:100E84004C51C1F80051C1F804514BB3D1F8044599
:100E940017490968641A24F07F442F461A68A2424D
:100EA40009D8A41A15441A7CDE691AB1D3E90520BD
:100EB4001F749047AEB90F4A0F4B11781B788B42C1
:100EC40005D10133DBB2022B08BF00231370127863
:100ED4000A4B43F822500A4B4FF48012C3F8002106
:100EE400F8BD3346DAE700BF2C07002000100140AC
:100EF4002807002025070020240700201C070020C5
:100F040000E100E02DE9F04FA24AA34913780978E3
:100F1400A24D994285B03CD00133DBB2022B08BF0D
:100F2400002313709E4912789E4B0F6853F82200D9
:100F34003B1823F07F4300220B602B6816461446AF
:100F4400944613B942B12B6006E0196881420ED968
:100F540002B12B60091A196001272B68DFF84CA233
:100F640001934FF00008BEB9DFF848B262E0401ABE
:100F74000C44D968D3F81CE0C3F800C031B13A1965
:100F840022F07F42C3E90121DE611E46734601223D
:100F9400D7E700263746E0E73446F669804A6368B7
:100FA4001268DFF814C2A068991A21F07F416145E4
:100FB40000F2A88001442160012222742A680023DF
:100FC400C4E90133E361002A40F0A5802C60CAE73C
:100FD4009BF802105A1CD2B291428BF8002004BF35
:100FE40000228BF80020182202FB03B32A68197927
:100FF4009C68022977D0032900F08180012919D146
:10100400207CB8B9D3E90312A2605A69E2609A69F4
:10101400654BA2611B78002B0CBF0B460346636033
:10102400BCE78C4200F094808946C9690029F8D154
:10103400002323749BF800309BF801209A42C7D107
:101044002B68B8F1000F04D1019A9A4201D1002F04
:1010540043D0002B79D0D3F800A0544D504BD5F891
:1010640004751C68DFF854813E1B98F8003026F0A4
:101074007F4603369BB94FF48033C5F84433C5F833
:1010840004334B4B4FF400324FF00109C3F8802175
:101094001A60C5F80090FFF7BDFE88F80090B245CD
:1010A4002CBF5444A41924F07F44C5F84045D5F816
:1010B4000435DB1B23F07F43E41B033324F07F441C
:1010C400A3420AD9D5F80435C5F84035FFF7A2FE86
:1010D400374B4FF40032C3F80021334B00221A700F
:1010E40005B0BDE8F08F114691469FE71174D269AF
:1010F4000123002AFAD1002B9CD02A609AE700230E
:101104001946F6E7D31A23F07F43834234BFC31A48
:101114000023236050E721681368994213D8591AB1
:101124001160E26152E7091AD8691A4638B10346D8
:1011340018688842F7D3401A18601846134621608D
:10114400E061DC610FE71346F2E7FFF76BFEC4E7EB
:101154004C4511D1D3692B6073B9DFF844E0012009
:10116400CDE90212CAF80800CEF800300E4B187010
:10117400FFF750FEDDE902120B68C969C9F81C10BB
:1011840011B1086803440B602B68934218BF4FF0F9
:1011940001084DE724070020250700202C07002024
:1011A400280700201C070020180700200010014019
:1011B40000E100E00C060020FEFF7F00190700207C
:1011C40072B6024A13680133136070473007002077
:1011D400034A1368013B136003B962B6704700BF4A
:1011E40030070020FFF7ECBFFFF7F2BF10B503464E
:1011F40053E8000F0A4643E8002494F0000FF7D1A7
:1012040010BD10B5034653E8002F42EA010043E83D
:10121400000494F0000FF6D110BD10B5034653E856
:10122400000F00EA010243E8002494F0000FF6D115
:1012340010BD10B5034653E8002F02EB010043E84C
:10124400000494F0000FF6D110BD10B5034653E826
:10125400002FA2EB010043E8000494F0000FF6D144
:1012640010BD0121FFF7CDBF0021FFF7D6BF10B598
:1012740090B1D0E9012301689B1ADBB20A60013BFB
:10128400DBB2FF2B026802D10020107110BD11687F
:101294004C1C14600B70F2E70E20F7E738B50446D7
:1012A4000020FFF79FFF226863681168994213D9F1
:1012B400481E106011F8015CE368218A01FB0535C2
:1012C400A36811791B1ADBB2994200D21371002072
:1012D400FFF78AFF284638BD0025F8E738B50546EC
:1012E40000200C46FFF77EFF2A681368591C116022
:1012F400E968641A298AB4FBF1F41C70BDE838402B
:101304000020FFF771BF826810B504462AB1436913
:101314000168006998470023A36010BD0EB403B5AB
:10132400039921B104AB01AA019300F077F802B04C
:101334005DF804EB03B070470A2938B504460D463E
:1013440002D10D21FFF7F8FFA3682268591CA160A0
:10135400D554D4E901329A4204D32046BDE838403A
:10136400FFF7D1BF38BD00002DE9F84F9846DDE9FD
:101374000A43154682460F460A464FF00109AA421F
:101384000FD2C14538BFC14613F0010B01D16CB96E
:1013940000240126B8F1010F1BD908F1FF386E4370
:1013A400F8E709F10109B2FBF5F2E8E79B070ED56E
:1013B400B8F1000F0CBF30262026A145E9D2013C2C
:1013C40031465046FFF7B8FF002CF6D1E0E720265F
:1013D400F3E7B7FBF6F39D42E1D9DFF83C80B7FBB6
:1013E400F6F3504618F8031006FB1377FFF7A4FF33
:1013F4003346AB42B6FBF5F6F1D2BBF1000F02D097
:101404000CB1A14501D3BDE8F88F20215046013C21
:10141400FFF792FFF4E700BF865100002DE9F74F74
:10142400054617468846002900F0428118F8011B3A
:1014340049B92B7B002B00F03B81284603B0BDE863
:10144400F04FFFF760BF252940F0B780002698F8D9
:1014540000302D2B424608F1010823D0302B24D034
:101464002B2B25D000242A2B02F1010123D13B6828
:101474001A1D1B683A601C440A4613782E2B26D189
:1014840001324FF0000A104610F8011BA1F1300C94
:10149400BCF1090F1DD80A2303FB0A13A3F1300A78
:1014A4000246F0E746F00106D1E746F00206CEE731
:1014B40046F00406CBE711F8013CA3F130000928FB
:1014C400DBD80A2202FB0434303C0A46CBE74FF057
:1014D400000A12F8011B01F0FB0068289046F8D0BE
:1014E400782909D86F290CD8632962D022D82529F4
:1014F40063D0582900F0888098F80030002B95D1EB
:1015040097E770390829F7D801A353F821F000BFF1
:101514008F160000FD140000FD1400001D160000CD
:10152400FD140000FB150000FD140000FD14000074
:101534000D160000642901D06929DDD13A68D2F87A
:101544000090111D89EAE9723960A2EBE9724FF04B
:10155400010B092A35DCD34538BFD3462CB1B9F188
:10156400000F01DB720700D5013CB30702D5BAF1C5
:10157400000F03D0F00701D44CBB0024B9F1000FD5
:101584002DDAC9F100092D212846FFF7D5FE06F012
:101594000302022A04D1BAF1000F01D11CBB0024BA
:1015A400CDE9004653460A2249462846FFF7DCFEA9
:1015B400A2E73B681A1D19783A602846FFF7BCFE7B
:1015C4009AE70A230BF1010BB2FBF3F2C1E7A3453F
:1015D400D4D220212846013CFFF7AEFECCE77107A8
:1015E400D5D52B21D0E7A345DAD230212846013CBA
:1015F400FFF7A2FED2E73968CDE900460A1D3A603A
:1016040053460A220968D0E739680A1D3A60CDE9D1
:10161400004653461022F5E73B681A1D3A6016F05F
:101624000106D3F8009028D1B9F1000F03D0484641
:1016340002F0F5FC0646B44200D904BB09F1FF39B7
:1016440019F8011F00293FF457AF2846FFF774FE2D
:10165400F6E728460136FFF76FFE19F80610002951
:10166400F7D1A642BFF448AF002C3FF445AF202188
:101674002846013CFFF760FEF3E70026EDE7202152
:101684002846013CFFF758FED5E73B681A1D3A602F
:10169400302128461C68FFF74FFE78212846FFF7C3
:1016A4004BFE00220823CDE90032214610227CE7BC
:1016B40003B0BDE8F08F00BF2DE9F84FB0F806A0E5
:1016C4004579D2F800B09DF828900AFB05F5043D51
:1016D40088460BEB0301A94203F1040488BFA5EB80
:1016E400030BB4FBFAF607460AFB1644C2F800B033
:1016F4004EB9AAEB04055D4528BF5D46BBF1000F5A
:1017040004D1BDE8F88F3F68013EF1E7043408EBEB
:1017140006003C442A46B9F1000F0DD02146ABEB3C
:10172400050B02F0FEFBDA452E443F6855464FF0A8
:10173400000428BF5D46E1E701462046EFE7FFF7D6
:1017440096BDF8B546790146721E054600239342BC
:101754002D6803D30024A64202D8F8BD0133F6E76E
:101764000F682846FFF7BAFD01343946F3E72DE93F
:10177400F843068ACD1C0746FFF790FD043E354426
:101784000446B5FBF6F5F0B14FF48073EDB28380F7
:10179400C680013D076081464FF00008A84512D27B
:1017A4003846FFF77BFD064648B163790133637120
:1017B40008F10108C9F8000007608146EEE72046F9
:1017C400FFF7BFFF34462046BDE8F883012104300B
:1017D400FFF72FBD10B5012104460430FFF735FD96
:1017E40010F0FF0F04D12046BDE81040FFF7A9BF59
:1017F40010BD1FB503920022009203AAFFF75CFFFD
:1018040005B05DF804FB1FB503920122009203AA00
:10181400FFF752FF05B05DF804FB0000064B10B55E
:1018240000241C70054B1C60BFF35F8F04490548FE
:1018340000F0C1F8204610BD3C07002040070020FE
:10184400A0510000340700200268136852689342D4
:1018540091BFD01A80680130801888BFC01A7047C1
:10186400036881681A685B688B4234BF01330023C4
:10187400D31A584258417047F8B5044600200D4623
:10188400FFF7B0FC2046FFF7EBFF10B1237C002BE1
:101894003CD12268A66853685168B14234BF013113
:1018A4000021516030B11168A068814234BF013118
:1018B40000211160E2686068511E072920D8DFE822
:1018C40001F004101F141F1F1F182A78C254204649
:1018D400FFF7BAFF23689A68824200D29860002416
:1018E40015E02A8820F81320F1E72A6840F823201D
:1018F400EDE7D5E9006700EBC300C0E90067E6E760
:10190400294602FB030002F00CFBE0E7042400205C
:10191400FFF76AFC2046F8BD036818685B68C31AC1
:1019240058425841704770B5054600200C4616468B
:10193400FFF758FC2846FFF7EFFF002830D129684D
:101944000B682EB90A68A868824238BF561C0E601C
:10195400EA686968501E07281CD8DFE800F0040C08
:101964001B101B1B1B14CB5C237000240020FFF7EF
:101974003BFC204670BD31F813302380F5E751F865
:1019840023302360F1E701EBC301D1E90023C4E96B
:101994000023EAE703FB0211204602F0C2FAE4E75F
:1019A4000524E3E7836800225A60C3E904229A60AD
:1019B400DA601A6070470B684A684360934208BF54
:1019C4000023016008BF43607047F0B501680A7ED8
:1019D4000B689E6806EBC20E5FFA82FC56F8326012
:1019E4009EF805309EF80470D4009EF8062012F08C
:1019F400010F4FEA530587B003F0010336D0ABBBA8
:101A0400D1F800E09EF80CE00CF1010CF4452DDA5D
:101A1400D1F800C0DCF808C00834A4449CF805C020
:101A2400B5EB5C0F22D10B689B681A1953F804C0FC
:101A340053790C7E92F804E0927903F001030134A7
:101A4400C3F103035201E4B2DBB202F020020C76CC
:101A540001A90C30CDE9027ECDE9046C8DF8043087
:101A64008DF8055000F00AFE07B0F0BD52014FF0AA
:101A7400000C02F02002E646EAE7034608461A682C
:101A8400126822B11A681B6851681B6818477047AE
:101A94002DE9F84F0568DFF88C9004460E464FF0A8
:101AA40000080020FFF79EFB16B923681B6843B9A2
:101AB400606800222946FFF736FF60B3C5F800804E
:101AC40000260020FFF790FB56B32B681B6923BB4D
:101AD4002F1D68691022394602F0BCF980B104F167
:101AE4000C0B584604F1080A00F07EFD23464A46D2
:101AF4003946504600F09AF8584600F04BFD6F61A5
:101B040085F818802046FFF760FF014640B1206841
:101B1400FFF7B3FFC5E70126D3E72B681F69D8E7B2
:101B2400BDE8F88F2D1B000010B500780C4668B98D
:101B34000A68137E11680133097BDBB2994206D926
:101B440013762046FFF741FF08B910BD0320014674
:101B54002068FFF792FF20460121BDE81040FFF7FF
:101B640097BF0000F8B50C4A0346044608300D46FA
:101B740000F05CF8064660B904F10C0000F00AFDC0
:101B8400276895E80F003C4644F8046B84E80F008E
:101B94007C613046F8BD00BF2D1B000037B50546FB
:101BA4000191406801A9FFF767FE044618B9014690
:101BB4002846FFF76DFF204603B030BD1FB50378FC
:101BC4008DF800308388ADF8043083688DF80630D2
:101BD400C3688DF80730036902934369054A039388
:101BE400054B684653F8213052F82110984705B048
:101BF4005DF804FB440700204C070020024B4FF41F
:101C0400807043F001031847C05100001F2886BFAD
:101C1400054A00F01F004FF0A042012303FA00F030
:101C2400C2F80805704700BF000300502DE9F047D3
:101C3400154690F80080394A42F82850384A42F84C
:101C440028304B7B06460C46A3B30868DFF8D890CF
:101C54004FF0A04100F5E07340F20C6241F82320FC
:101C6400636803F5E073002741F82320FFF7CEFFF4
:101C74006068FFF7CBFF236803F5E07340F20D6261
:101C840041F82320636803F5E0734FF0010A41F83B
:101C94002320FFF7B3FF63681F2B8ABF4A464FF028
:101CA400A04203F01F03D2F8102522FA03F3DB0746
:101CB4000BD507BB002D1B4A434608BF2A462146C5
:101CC400301DBDE8F04700F0DDBB23681F2B86BF45
:101CD40003F01F034A464FF0A0420AFA03F3C2F886
:101CE4000C35FFF78BFF01372068FFF78FFFFFF7F5
:101CF40085FF092FCFD163681F2B86BF0A4903F0E4
:101D04001F034FF0A041012202FA03F3C1F80C357E
:101D1400FFF774FF6068FFF779FFCBE74C070020FB
:101D240044070020C11B0000000300501FB50378C6
:101D34008DF800304368019383688DF80830C368D8
:101D4400054A0393054B684653F8213052F8211095
:101D5400984705B05DF804FB540700205C07002099
:101D64001FB503788DF800304368019383688DF8BC
:101D74000830C368054A0393054B684653F821307D
:101D840052F82110984705B05DF804FB5407002071
:101D94005C070020F0B5194B90F800C0DFF86CE048
:101DA40043F82C20164B16460A6943F82C204B7F27
:101DB4000EF80C300C4607460FCC89B06D460FC5A3
:101DC40094E80F0085E80F001EF80C30CDF810C021
:101DD4004BB1002E0B4A694608BF3246381D00F04D
:101DE400A3FF09B0F0BD002E074A694608BF32467A
:101DF40007F10C0000F08EFDF3E700BF5C07002044
:101E040054070020311D0000651D000064070020F8
:101E1400154B07B51A687AB100221A601B68009343
:101E2400009B4FF080430122C3F808230F4B5879DD
:101E340010B95A711B6898470D4B1A6882B1002279
:101E44001A601B680193019B4FF080430222C3F880
:101E54000823064B1B68012003B05DF804EB184708
:101E640003B05DF804FB00BF0001004068070020D8
:101E74000401004000F1804000F5C040002382B01E
:101E8400036003680193019B02B0704703681F2B32
:101E940083BF03F01F03036001484FF0A040704765
:101EA4000003005007B5019001A8FFF7EFFF019B65
:101EB40000EB8300D0F8003723F44033C0F8003738
:101EC400D0F8003743EA0141C0F8001703B05DF8C9
:101ED40004FB00002DE9F04F002489B0CDE9024451
:101EE400624D4FF48072012102F1804303F5C04337
:101EF40090B21B68012B06D1D5F804330B4202D0F3
:101F0400FFF7B8FF0C430432B2F5907F4FEA41016A
:101F1400EAD1574B1B68012B0ED14FF4BE70FFF76B
:101F2400A9FF4FF0A04344F00044D3F810350293C6
:101F3400504BD3F81035039314F0FF0F1AD04E4FC3
:101F440000250126344210D0AB0003F1804303F591
:101F5400C043D3F81005D3F8101557F8253023B132
:101F6400C1F30141C0F3052098470135082D4FEA1C
:101F74004606E7D1002C75DA04AF002304937B6096
:101F84004FF0FF33CDE90633DFF8EC90DFF8EC8057
:101F94000026354618F9012B531C4AD0C2F3C2005F
:101FA4000123D4B202F03F0B02F0070203FA02F25B
:101FB40008AB191811F8083C13423AD009EB0B038B
:101FC400A40993F9303059F823A0BAF1000F08D1CD
:101FD400032C2ED117F800C04CEA020C07F800C0FD
:101FE40001E0032CF6D001A8CDF804B0FFF74EFFB2
:101FF400019B11F8181C03F5E07C114250F82C00E9
:10200400C0F3014005D0022813D1032C0BD1214683
:1020140004E003280DD1032C05D102215846FFF713
:1020240041FF0135EDB2BAF1000F02D02146584606
:10203400D0470136042EADD1A5B14FF0A04302998B
:10204400D3F8102503F540739142D3F8103502D12B
:102054000399994206D002920393049A059B06922F
:10206400079393E709B0BDE8F08F00BF006000401C
:102074007C6100400003005070070020D00700205E
:10208400014B1B68184700BFDC07002038B50B4B19
:1020940098420C4601D0002038BD0020FFF7A2F87A
:1020A400074B1D7915B901221C601A710020FFF736
:1020B4009BF8002DEFD01120EEE700BF0020004078
:1020C400DC070020034B984201BF034B00221A6037
:1020D4001A71704700200040DC07002000234350A1
:1020E40082B043580193019B02B070472DE9F04739
:1020F4000E78089F9DF824A004460D469846002EAD
:102104005ED1D0F82431D2F800903BB14FF49271F3
:10211400FFF7E4FF012363612B7017E0D0F81C3153
:1021240053B34FF48E71FFF7D9FFD0F824311BB1AC
:102134004FF492712046EBE713689F4212D918F8C6
:102144000330C0F81C35136801331360B94535D129
:10215400D4F8043193B34FF482712046FFF7BEFFE5
:10216400002604E00123BAF1000F03D0C361304616
:10217400BDE8F0874361E9E7D0F80831002BE5D0EA
:102184004FF48471FFF7AAFFD0F82431002BCFD18C
:1021940013689F42DAD9D0F8181508F803101368A9
:1021A400013313607A1E934205D10223C0F8003232
:1021B40001232362CAE79F42FAD1C7E70126D6E783
:1021C4004FF49271FFF78AFF4FF48E71FFF786FF89
:1021D4004FF48471FFF782FFBAE700002DE9FF474F
:1021E4000C4605461F4620463B4B03934FF4827131
:1021F40016469DF83080FFF771FF4FF49271FFF798
:102204006DFF4FF48E71FFF769FF4FF48471FFF790
:1022140065FF0023C4F800326B6385F82E30012378
:102224002362A3606A6B97421DD9B35CC4F81C3562
:102234006B6B01336B632B68E3B905F1340A05F169
:102244002E09039B002B1FDC95F82E3053BB002076
:10225400039B002B15DC0023C4F800350523C4F8C8
:10226400003503200DE0B8F1000F01D0E361E2E78F
:102274006361E0E740F28623AB60AB68C4F80433E3
:10228400002004B0BDE8F087CDE90078334652461B
:1022940049462046FFF72AFF0028D5D0039B013B7F
:1022A4000393CEE7D4F8C434C4F8C434002BCED09E
:1022B40013F0010F14BF4FF40240032048F201222F
:1022C40013F0020F18BF104613F0040F48F2022354
:1022D40018BF1846BCE700BFA08601002DE9FF47E0
:1022E4000C4605461E462046354B03934FF4827137
:1022F4009046FFF7F3FE4FF49271FFF7EFFE4FF4B1
:102304008E71FFF7EBFE4FF48471FFF7E7FE0023B5
:10231400012E2F686B6385F82E3008BF02224FF020
:1023240001030CBFC4F80022C4F800322362236006
:10233400AFB905F1340A05F12E09039B002B18DC13
:1023440095F82E301BBB0020039B002B0EDC0023D2
:10235400C4F800350523C4F80035032006E040F234
:102364008623AB60AB68C4F80433002004B0BDE836
:10237400F087CDE900674346524649462046FFF7B9
:10238400B5FE0028DCD0039B013B0393D5E7D4F8CA
:10239400C434C4F8C434002BD5D013F0010F14BFD7
:1023A4004FF40240032048F2012213F0020F18BF39
:1023B400104613F0040F48F2022318BF1846C3E76F
:1023C400A0860100F0B52C4C2C4894F82C3089B030
:1023D40004F134020193A36A0093636A04F12E01A9
:1023E400FFF784FE2746E0B994F82EC0266ABCF1B4
:1023F400000F1DD1217B8B1E012B19D8626AA369A2
:102404009A4215D1E26963696262C6F340160329F0
:10241400A36284F82C6006D1184900962046FFF781
:10242400DDFE09B0F0BD15492046FFF757FFF8E778
:10243400134D0FCD03AC0FC42B682360BCF1000F08
:1024440017D00E4AD2F8C434C2F8C43499070CD554
:1024540001238DF80830002387F82F307307E0D468
:10246400D7E9003102A89847DBE75A07F3D50223DE
:10247400EFE78DF808C0EEE7E407002000300040E5
:10248400F00700202DE9F84F06793D4D4FF03C0A46
:102494000AFB06FA05EB0A079B4697F82D3080469F
:1024A4000C469146002B66D136490068FFF7EEFDD5
:1024B400002862D12168637B87F838301F298CBFDC
:1024C40001F01F030B46B860C7F804B087F82F006B
:1024D40087F8300003F5E07288BF2B4F45F80A9067
:1024E40098BF4FF0A04740F20C6347F8223062686F
:1024F4001F2A1F468CBF02F01F03134603F5E07327
:102504008CBFDFF884C04FF0A04C4CF82370D8F88F
:102514000030C3F80815C3F80C25A268C3F82425B5
:10252400B9F1000F1FD043F307310029227BB4BF58
:10253400164C01F16044C3F30733B8BF03F00F072F
:102544004FEA4212A8BF04F56144D2B2B4BFE255C7
:1025540084F8002303F01F03012202FA03F349095C
:102564000B4A42F821303C2303FB0655012385F82E
:102574002D30BDE8F88F0820FBE71120F9E700BFF4
:10258400E4070020C92300000003005014ED00E01C
:1025940000E100E0026803790521C2F80015044A4D
:1025A4003C2101FB0323022283F82D20704700BF46
:1025B400E407002003680A490279C3F80813D3F832
:1025C400001221F00301C3F800120021C3F8001522
:1025D400044B3C2101FB0233012283F82D20704778
:1025E40086420400E407002070B50579204E3C23A0
:1025F4006B430446F35863B1026842F30733012185
:102604005B09C2F3043201FA02F22033194941F89A
:1026140023202046FFF7CEFF2068FFF753FD3C231D
:1026240003FB056393F83830DBB92168D1F808352A
:102634001F2B86BF03F01F030F484FF0A04003F584
:10264400E073022240F82320D1F80C351F2B86BFFB
:1026540003F01F0308494FF0A04103F5E07341F86C
:1026640023203C2303FB0565002385F82D3070BD32
:10267400E407002000E100E0000300502DE9F74FDB
:102684002D4E0779D0F800902C4BC9F808333C251F
:1026940005FB0765C7EB071C95F82F308E461446DB
:1026A40006EB8C0C03F0FF0B33B1AB68C9F80433B1
:1026B400112003B0BDE8F08F82F00403C3F380035C
:1026C40085F82F302A628A46BAE80F0005F10C0813
:1026D400A8E80F00DAF80030C8F80030DEF804305B
:1026E400AB62DEF80C206A629EF80110C9F8881506
:1026F4009EF80010012917D0A1B9C4F340143C215D
:1027040001FB0761604681F82C4000944946FFF7BD
:1027140065FD3C235F43F219F359002BC9D182F8BC
:102724002F30C6E70124EAE785F82CB04946604615
:10273400FFF7D4FDEDE700BFE40700208642040064
:102744000023435082B043580193019B02B0704769
:102754000A4610B54FF48E71FFF7F2FF136A9168C1
:10276400C95C136A01331362C0F81C1510BD8B6970
:102774000A4610B54FF4847123B9FFF7E1FFD0F88E
:10278400183510BDFFF7DCFF536AD168D0F818057F
:10279400C854536A01335362F3E700001FB50123A1
:1027A4008DF80030044BCDE90110D3E900126846DE
:1027B400904705B05DF804FB2008002030B54B4875
:1027C400D0F8043313F4007F85B005464DD0D0F81B
:1027D4002431002B49D04FF49271FFF7B1FF4FF42D
:1027E4000173C0F80833424B93F829200AB9012237
:1027F40042603E4902228DF80020D1F88024C1F8BD
:10280400802403929A690292DA6801920022C3E951
:1028140006226846D3E9001290473448D0F81C31A8
:102824005BB133490A6A4B699A420A464AD291F823
:102834002830002B46D1FFF78BFF2C48D0F84431C9
:102844008BB14FF4A271FFF77BFF294B93F829203A
:102854000AB1012202609A692AB10022586AD96831
:102864009A61FFF79BFF05B030BDD5F804335B07D1
:10287400D3D5D5F80831002BCFD01D4C1B482146A9
:10288400FFF775FF636AA2699A422346C5D1E269DC
:10289400E1684AB12369E3600023606AA261E361ED
:1028A4006362FFF77BFFB8E794F829200AB9012295
:1028B4006A600E4A4FF40170C2F808030022586A95
:1028C4009A61EEE74FF48E710848FFF739FF5169BA
:1028D4000029B2D00023029191688DF80030019153
:1028E40053616846D2E900139847A6E700200040E8
:1028F400200800201F2886BF00F01F00044B4FF063
:10290400A04300F5E070022243F82020704700BF86
:10291400000300502DE9F843634B057991462C22BE
:1029240002FB0532064692F82A200C469846002AF5
:1029340040F0B6805D490068FFF7A8FB0746002811
:1029440040F0B08021684A1C10D01F2987BF584A24
:1029540001F01F030B464FF0A0420120984003F5FD
:10296400E073C2F80805032042F823006068431CA2
:102974000DD01F288BBF00F01F0303464C4A4FF0B5
:10298400A04203F5E0734FF0000C42F823C0336813
:10299400A269C3F8242594F814C0627DBCF1010F28
:1029A4004CEA0202C3F86C25C3F81405C3F80C15ED
:1029B4002BD1A168481C0DD01F298BBF01F01F0229
:1029C4000A463B484FF0A04002F5E0724FF0000C7D
:1029D40040F822C0E068421C13D01F2887BF344A45
:1029E40000F01F0C84464FF0A0424FF0010E0EFA87
:1029F4000CFE0CF5E07CC2F808E54FF0030E42F83B
:102A04002CE0C3F80805C3F810152C236B4308EB1E
:102A14000302C2F80490226948F80320B9F1000FB8
:102A24002BD03068247F4FF48E71FFF789FE306815
:102A34004FF4A271FFF784FE32681E4BC2F80433D0
:102A4400110B42F30732002AA8BF02F160404FEA9B
:102A54004413BABF184801F00F0400F56140DBB21B
:102A6400B4BF035580F8003301F01F01012303FABA
:102A740001F15209114B43F8221033680422C3F8C0
:102A840000252C2303FB05830022C3E9062283F8D7
:102A940029205A61012283F82A203846BDE8F883A8
:102AA4000827FAE71127F8E720080020C1270000CB
:102AB400000300508000020014ED00E000E100E09B
:102AC4002DE9F04103680479244D0022C3F8002560
:102AD4002C2202FB0452014652686AB1204AC3F810
:102AE400082343F30732C3F3043652090120B040EC
:102AF40020321C4E46F82200D3F80C05D3F8148576
:102B0400D3F80865D3F810754FF0FF329042C3F83C
:102B14001425C3F80C25C3F80825C3F8102501D0E3
:102B2400FFF7E8FEB8F1FF3F02D04046FFF7E2FEB0
:102B34007A1C02D03846FFF7DDFE731C02D0304603
:102B4400FFF7D8FE0868FFF7BDFA2C2303FB0454F3
:102B5400002384F82A306360BDE8F0812008002057
:102B64008402020000E100E02DE9F843204B0779DC
:102B74004FF02C0909FB0734054666699846002E78
:102B840033D100686261A16026624FF48E7184F8CB
:102B94002860FFF7D5FD2868012383602146FFF7ED
:102BA400D7FD6368A14683B92868226A63699A429B
:102BB40011D32B68D3F81C21002AFBD00122DA6040
:102BC4002C2303FB078300225A613046BDE8F883B7
:102BD40094F828303BB9D0F81C31002BF8D0494682
:102BE400FFF7B6FDE1E70F26EAE71126EDE700BFA0
:102BF400200800200023435082B043580193019BD6
:102C040002B070471FB501238DF80030044BCDE9A5
:102C14000110D3E900126846904705B05DF804FB43
:102C24004C0800207FB5364AD2F82461002E46D0E5
:102C340010464FF49271FFF7DDFF02238DF8003048
:102C4400D2F88034C2F880340393D2F83C3502932E
:102C54002C4BDA6801920022C3E906226846D3E9C4
:102C6400001290472648D0F8443173B14FF4A27152
:102C7400FFF7C0FF234B9A693AB10022C3E9062249
:102C8400D968D0F83C05FFF7BDFF1D48D0F82031C6
:102C94009BB14FF49071FFF7ADFF1A4B5A6962B1C3
:102CA400D0F84C150291002299688DF8002001910A
:102CB4005A616846D3E90012904704B070BDD2F857
:102CC4001031002BCED04FF488711046FFF792FFDD
:102CD4000C4BD2F83C0599698842C3D1DC69D968A8
:102CE40064B1D2F8005225F02005C2F800521A69E6
:102CF4009C61DA60DE61FFF785FFB3E79C61FAE768
:102D0400002000404C0800201F2886BF00F01F0050
:102D1400044B4FF0A04300F5E070022243F820205A
:102D2400704700BF000300502DE9F843674B067954
:102D34009146242202FB0632044692F820200D46D6
:102D44009846002A40F0BE8061490068FFF79EF96A
:102D54000746002840F0B8802868421C10D01F287D
:102D640087BF5C4A00F01F0303464FF0A0420121D5
:102D7400994003F5E073C2F80815032142F82310C3
:102D840069684B1C0DD01F298BBF01F01F030B4634
:102D9400504A4FF0A04203F5E0734FF0000C42F8A4
:102DA40023C02368AA69C3F8242595F814C06A7D52
:102DB400BCF1010F4CEA0202C3F86C25C3F80C0500
:102DC400C3F814152BD1A968481C0DD01F298BBF3B
:102DD40001F01F020A463F484FF0A04002F5E0729E
:102DE4004FF0000C40F822C0E868421C13D01F28A2
:102DF40087BF384A00F01F0C84464FF0A0424FF0C2
:102E0400010E0EFA0CFE0CF5E07CC2F808E54FF05A
:102E1400030E42F82CE0C3F80805C3F81015242368
:102E2400734308EB0302C2F804902A6948F80320AC
:102E3400B9F1000F35D020682A7F4FF48871FFF76D
:102E4400D9FE20684FF49071FFF7D4FE20684FF448
:102E54009271FFF7CFFE20684FF4A271FFF7CAFE0C
:102E640023681D49C3F80413190B43F30733002BDC
:102E7400AEBF03F1604001F00F0518484FEA42125B
:102E8400A8BF00F56140D2B2B4BF425580F8002318
:102E940001F01F01012202FA01F15B09104A42F814
:102EA400231023680822C3F80025242303FB068388
:102EB4000022C3E906225A61012283F82020384601
:102EC400BDE8F8830827FAE71127F8E74C08002043
:102ED400292C0000000300501003020014ED00E050
:102EE40000E100E02DE9F04103680479244D00225B
:102EF400C3F80025242202FB0452014652686AB139
:102F0400204AC3F8082343F30732C3F304365209B3
:102F14000120B04020321C4E46F82200D3F80C05A4
:102F2400D3F81485D3F80865D3F810754FF0FF3241
:102F34009042C3F80C25C3F81425C3F80825C3F838
:102F4400102501D0FFF7E0FEB8F1FF3F02D0404664
:102F5400FFF7DAFE7A1C02D03846FFF7D5FE731C61
:102F640002D03046FFF7D0FE0868FFF7ABF8242301
:102F740003FB0454002384F820306360BDE8F0812F
:102F84004C0800201003020000E100E001F060435F
:102F9400B3F1005F2DE9F041064632D11B4B0779AE
:102FA400242505FB073598466C6964BB6A61006893
:102FB400A9604FF49071FFF71DFE4FF4AC713068B7
:102FC400FFF718FE33686A69A968C3F84415C3F8A3
:102FD400482501229A606A6862B9D3F82021D3F89F
:102FE400584152B9002CF8D00F24242303FB07873F
:102FF40000237B612046BDE8F081002C18BF0F241C
:10300400F3E71024F6E71124F4E700BF4C0800208E
:1030140007B5DBB2CDE90023094800230A4619218C
:1030240000F062FC074B4FF47A4043F001039847E9
:10303400FDF7D6FB0028FBD103B05DF804FB00BF0D
:103044001C0000203052000007B5DBB20093094891
:1030540013460A46192100F021FD074B4FF47A402C
:1030640043F001039847FDF7BBFB0028FBD103B0F5
:103074005DF804FB1C0000203052000008B54FF43A
:1030840000410020FDF752FB08B1FDF77DFEBDE8CD
:103094000840FDF785BA000080B58AB0444B454C22
:1030A4000793454B08932146002307A8099300F092
:1030B4006CFB2378442B00D0FEE7012107A800F025
:1030C40069FB3E4D3D4907A800F07BFB2C78002CA2
:1030D400F8D1012107A800F0FEFA022107A800F0A8
:1030E40011FB214607A800F07AFB012107A800F094
:1030F400A2FB102107A800F093FA032107A800F00F
:10310400BEFA2F4E2F4C304F0DF11B0107A800F0D3
:1031140010FB9DF81B30002BF6D006220021284816
:1031240000F028FF264907A800F011FBB6F90000BB
:1031340000F06AFAB6F9020084ED000A00F064FABD
:10314400B6F9040084ED010A00F05EFA206884ED0B
:10315400020A10EE105A00F0DDFC02460B46284627
:10316400CDE9042300F0D6FCCDE90201606800F04B
:10317400D1FCDDE90423CDE900013946134800F010
:103184009CFE206800F0C6FC02460B46A068CDE910
:10319400042300F0BFFCCDE90201606800F0BAFC32
:1031A400DDE90423CDE90001094800F015F9ABE796
:1031B4004D300000C10F002015300000D80B002056
:1031C4007C08002070080020E6510000D90B002084
:1031D400F85100001FB5FFF751FF134800F0FCF849
:1031E4000023ADF80D308DF80F301B221A23CDE9E2
:1031F40000234FF0CC7302930C48042369468DF8E6
:103204000C30FEF7AFFC08B1FDF7BEFD084800F036
:1032140067FB08B1FDF7B8FDFEF700FB08B1FDF749
:10322400B3FDFFF739FF00BF0C5200003852000015
:103234001C0000200369C1688B429DBF8268D218BC
:1032440002F1FF3203F1FF3394BF501A581A70474A
:103254002DE9F843D0E902940546A9EB0408406837
:10326400904520440F46144404D900F05AFEEC6003
:10327400BDE8F8834246A4EB090400F052FE6868F6
:10328400224607EB0801F0E72DE9F843C568064636
:10329400894617464FF000083469B3687068A54240
:1032A40028BFE418013C621B5C1BBC4228BF3C469F
:1032B400944228BF144649462844224600F031FE71
:1032C400B3682544AB4208BF00253F1BA044A1447A
:1032D400F560E1D14046BDE8F883000010B5114C1B
:1032E400114AA2610223C4E90433104BE361A264CE
:1032F4004FF400730E4A0F492362E2640023102244
:10330400E01DA3626362E362A3656365E36522650E
:1033140000F063FE0849204600F05FFE2023A371FD
:1033240010BD00BFC40F0020505200004C100020FC
:103334003C100020595200005D520000F8B5184CB2
:10334400182300FB033503FB00402544C46A012C09
:103354000F4616460FD0022C1AD0F4B92846FFF7B0
:1033640069FF864205D8324639462846FFF770FF82
:1033740034462046F8BD2846FFF75CFF86423446B3
:1033840028BF0446224639462846FFF761FFF0E786
:103394002846BDE8F840FFF777BF0024E9E700BFFF
:1033A400C40F002070B50B4B1B7804460D4616461F
:1033B4000BB9FFF793FF0020FDF714FF32462946AF
:1033C4002046FFF7BBFF04460020FDF70DFF204613
:1033D40070BD00BFC40F00200FB410B5A2B024AB61
:1033E400802153F8042B019302A800F08CFD80285F
:1033F40004460ADD802202A90020FFF7D3FF2046FD
:1034040022B0BDE8104004B070470028F7DD024642
:10341400F1E70000054B1B68082B01BF044B18683B
:10342400B0FA80F0400918BF002070473001001046
:103434003401001008B54FF080430022C3F80C217A
:10344400C3F81021C3F838254FF0805203F54043E8
:10345400D2F80414C3F82015D2F80814C3F82415BC
:10346400D2F80C14C3F82815D2F81014C3F82C158C
:10347400D2F81414C3F83015D2F81814C3F834155C
:10348400D2F81C14C3F84015D2F82014C3F844151C
:10349400D2F82414C3F84815D2F82814C3F84C15EC
:1034A400D2F82C14C3F85015D2F83014C3F85415BC
:1034B400D2F83414C3F86015D2F83814C3F864157C
:1034C400D2F83C14C3F86815D2F84014C3F86C154C
:1034D400D2F84424C3F87025FFF79CFF10B1384B91
:1034E400384A1A60FFF796FF18B1374BFB22C3F82E
:1034F4001825FFF78FFF48B13449354B0A681B681C
:1035040022F00F0203F00F0313430B60FFF782FF57
:1035140018B1304B4FF400721A604FF08043D3F867
:103524000024D20744BF6FF00102C3F800242A4AE2
:10353400D2F8883043F47003C2F88830BFF34F8F59
:10354400BFF36F8F4FF01023D3F80022002A03DB60
:10355400D3F80432002B2FDA204B0122C3F80425C0
:10356400D3F80024002AFBD04FF010221221C2F815
:103574000012D3F80024002AFBD04FF010231222AB
:10358400C3F80422154B1A46D3F800140029FBD0C3
:103594000021C3F80415D2F80034002BFBD0BFF38C
:1035A4004F8F0D490E4BCA6802F4E0621343CB609F
:1035B400BFF34F8F00BFFDE70A4B0B4A1A6008BDEB
:1035C4008C5600404881030000F00040E40E0040A7
:1035D400580200104096024000ED00E000E0014077
:1035E4000400FA05240000200090D00310B4D0E9B0
:1035F4000140A4465DF8044B604710B40468806839
:10360400A4465DF8044B604707EE900AB8EEE70A5B
:10361400DFED027A20EE270A704700BF23DB793EF4
:1036240037B501230C466A4620210546FFF7DEFF25
:1036340018BB9DF8002004F00F0322F00F0213437F
:103644008DF800306A46012320212846FFF7D5FF74
:1036540098B9012301AA25212846FFF7C7FF60B9BD
:103664009DF80430240964F382038DF8043001AA20
:10367400012325212846FFF7C0FF03B030BD37B52D
:1036840001230C466A4620210546FFF7AFFF00BB25
:103694009DF8003064F307138DF800306A46012367
:1036A40020212846FFF7A9FF98B9012301AA222166
:1036B4002846FFF79BFF60B99DF80430240964F3A2
:1036C40001038DF8043001AA012322212846FFF7C3
:1036D40094FF03B030BD37B501230D4601AA212163
:1036E4000446FFF783FF58B99DF8043065F3C3031C
:1036F4008DF8043001AA012321212046FFF77DFF24
:1037040003B030BD37B501230D4601AA2521044677
:10371400FFF76CFF58B99DF8043065F305138DF875
:10372400043001AA012325212046FFF766FF03B0D8
:1037340030BD13B501230C4601AA2721FFF756FF1C
:103744009DF80430C3F30003237002B010BD13B519
:1037540006230C466A462821FFF748FF9DF80120FE
:103764009DF8003003EB022323809DF803209DF88D
:10377400023003EB022363809DF805209DF804309A
:1037840003EB0223A38002B010BD0A4601230F21DC
:10379400FFF72CBF37B501230D4601AA21210446AA
:1037A400FFF724FF58B99DF8043065F386138DF8AC
:1037B400043001AA012321212046FFF71EFF03B094
:1037C40030BD13B501230C4601AA2121FFF70EFFDA
:1037D4009DF80430C3F38013237002B010BD37B5D5
:1037E40001230D466A4625210446FFF7FFFE00BB70
:1037F4009DF800202B0963F3C3028DF800200123F8
:103804006A4625212046FFF7F8FE90B9012301AA54
:103814003F212046FFF7EAFE58B99DF8043065F3CE
:1038240004138DF8043001AA01233F212046FFF739
:10383400E4FE03B030BD37B501230D4601AA2521AE
:103844000446FFF7D3FE58B99DF8043065F3871397
:103854008DF8043001AA012325212046FFF7CDFE6F
:1038640003B030BD70B506460C4D0D480A782D1ACC
:10387400ED080C462D0433460A4945F00300FDF7D4
:1038840014F9A36A13B1E16830469847E36A214604
:103894005868BDE87040FDF721BD00BF005000002E
:1038A400B84F00006452000038B50346094C0A487A
:1038B4000A78241AE4080D46240444F00300074956
:1038C400FDF7F3F8EB6A29465868BDE83840FDF780
:1038D40005BD00BF00500000B84F00008852000032
:1038E4004068FDF7C4BC00002DE9F3472A4D9DF85C
:1038F4002CA0CDF800A09946284BED1AED080746F8
:103904002D04134645F00300884616460A4624490A
:10391400FDF7D5F87868FDF7C1FC044648B921499C
:1039240045F00200FDF7B4F80426304602B0BDE8C5
:10393400F087012208FA02F3437213430A9943748D
:1039440000F11403067002728272C1608274C0E9CD
:103954000A97406080F810A014220021184600F055
:1039640009FB114AC4E90524221DE261022284F8FC
:10397400202001463868FEF711F906460028D4D005
:1039840003460A4945F002004246FDF78EF878687E
:103994002146FDF7A3FCC8E700500000B84F000023
:1039A400AD520000E252000069380000F8520000F5
:1039B4002DE9F347324D9DF828A09146314AAD1ABE
:1039C400ED0807462D040A4645F0030088462E49B3
:1039D4001E46FDF76AF87868FDF760FC044650B9A6
:1039E4002A49424645F00200FDF756F804263046BF
:1039F40002B0BDE8F0874FEA480343750023C7626D
:103A0400C0F8109006758375BAF1000F15D0102E0A
:103A14000ED910231E4900934246334645F0010057
:103A2400FDF74DF878682146FDF758FC0926DEE7D6
:103A34003246494600F075FA246104F11803142251
:103A44000021184600F096FA124AC4E9062404F14B
:103A540010022262012284F8242001463868FEF70D
:103A64009DF806460028C2D003460B4945F00200E3
:103A74004246FDF71AF878682146FDF72FFCB6E7B1
:103A840000500000B84F0000375300005B530000A3
:103A940085530000AD380000F85200002DE9F043D2
:103AA400184C9946184B87B0E41AE4089DF838502E
:103AB400240407460E4644F0030014499046FCF7DC
:103AC400EBFF0F2D0CD90F23009344F00100104994
:103AD4002B463246FCF7F3FF092007B0BDE8F0831C
:103AE4002A4649460DF109008DF8088000F019FABC
:103AF4006B1C01220092DBB202AA31463846FFF762
:103B040057FFEAE700500000B84F0000DC53000004
:103B140085530000C0F3C75191B142004FEA407091
:103B24004FEAD2014FEA310101F16051B2F17F4F06
:103B340038BF704701F1605118BF41F4002170474C
:103B440010F000410020704701F000428B1AA3F1ED
:103B54006051B1F5801F0ADBB1F17F6F09D242EAEF
:103B6400C102C10071F1004142EB50707047104630
:103B7400704701285B4113F5001F04D842F0FE4052
:103B840040F400007047C90041EA507040EA020066
:103B940040F4800040F08040704700BF10EE100AEF
:103BA4004FEA4000B0F17F4F0CBF01200020704766
:103BB40010EE100A41000020B1F17F4F18BF50EB06
:103BC4000000704710EE100A00F00040704700BF7C
:103BD400B0EEC00A704700BF00B510EE100A00F046
:103BE40003F800EE100A00BD4FF07F43B3EB400F23
:103BF40022D9410008BF704703EA4002120E7F3AFF
:103C040014DB172AA8BF70474FF6FF73C0F27F0377
:103C1400D340184220EA030018BF10F0004F08BF39
:103C240070474FF40001D1404018704710F0004F26
:103C34000CBF00200248704718BF024870470000BC
:103C4400000080BF0000C07F00B5014610EE100ADE
:103C540000F003F800EE100A00BD4FF07F43B3EB11
:103C6400400F98BF704713EA400207D0120E7E3A05
:103C74000A6020EA530040F07C5070470A6000F06C
:103C84000040704700B5014610EE100A00F003F83A
:103C940000EE100A00BD4FF07F43B3EB400F98BF16
:103CA400704713EA400204BF00F00040704711EB74
:103CB4001262DCBF00F000407047FF2A3CBF00EBFB
:103CC400C150704740004FEA330070477F2805D841
:103CD400034B185C034B5B5C184070470020704733
:103CE4000C5400008C540000A0F16103192B98BF00
:103CF40020387047A0F14103192B98BF203070473A
:103D04007F2805D8034B185C034B5B5C1840704755
:103D1400002070470C5400008C540000A0F1610393
:103D2400192B98BF20387047A0F14103192B98BF75
:103D3400203070477F299ABF017001206FF02E0058
:103D440070475AB10A787F2A0AD800B1026000216C
:103D540019605960501A18BF01207047002070473D
:103D64006FF02E0070470000002816DB002817DDD6
:103D74000022B7EE000A0C4B10F0010F1CBFD3ED6C
:103D8400007A20EE270A401004330028F4DC4AB1FC
:103D9400F7EE007A87EE800A704740420122E8E796
:103DA400B7EE000A704700BF6456000038B50446F9
:103DB4000846A26842B1236861685D1C8D4208BF51
:103DC40000208B4208D2D054E3682BB1216862688A
:103DD400914201D22146984723680133236038BDBC
:103DE40070B54C1E09D41646C5B229463046FFF7B5
:103DF400DDFF013CB4F1FF3FF7D170BD10F0100FAF
:103E040008D108B510F4007F14BF30202020FFF73C
:103E1400E7FF08BD70470028B8BF40427047000064
:103E240008B5034B5B689B681B68984708BD00BFD7
:103E34002800002008B50921FFF7F2FF08BD0000A3
:103E440000B5FCF7C5FA024B18445DF804FB00BF4B
:103E5400080000007AB370B414460F2A15D902463C
:103E64000B4640EA010515F0030F01D0013C0EE0BA
:103E7400194610460432043306680D68AE4204D174
:103E840010461946043C042CF2D8013C0ED00A46D4
:103E940003460444114618460133013206780D786E
:103EA400AE4203D118461146A342F3D100780B78F1
:103EB400C01A70BC7047002070470EB400B586B0BD
:103EC40007AA52F8041B05920390002304936FF091
:103ED4000043029301A800F0D3F806B05DF804EBA8
:103EE40003B07047037853B159B10144034613F842
:103EF400012F12B18B42FAD10B46181A70470346B0
:103F0400FBE70346F9E710B584B00C46114602906E
:103F14000022039201941A46684600F0B1F804B0F6
:103F240010BD844640EA010313F0030F18D1844600
:103F3400202A0BD32DE9F007B1E8F807A0E8F80729
:103F4400A2F12002202AF7D2BDE8F007042A07D301
:103F540051F8043B40F8043BA2F10402042AF7D2CE
:103F6400002A05D011F8013B00F8013B013AF9D1D0
:103F7400604670478446002A2DD010F0030F04D009
:103F840000F8011B013A26D0F7E7C9B241EA012142
:103F940041EA0141202A12D3A2F120022DE9F003C3
:103FA4000B460C460D460E460F4688468946A0E849
:103FB400FA03203AFBD2BDE8F00320320BD0042AE6
:103FC40005D340F8041B043A05D0042AF9D200F8BA
:103FD400011B013AFBD160467047024610F0030F03
:103FE40016D111F0030F13D12DE9F0004FF0013772
:103FF4004FF0803351F8044BA4EB070525EA040580
:104004001D4002D142F8044BF4E7A1F10401F0BCD5
:1040140011F8013B02F8013B002BF9D1704700F184
:10402400010110F0030F11D010F8012B002A23D046
:1040340010F0030F0AD010F8012B002A1CD010F046
:10404400030F03D010F8012B002A15D02DE97000BE
:104054004FF001324FF0803350F8044BA4EB0205CB
:1040640025EA04051D4000D1F6E7A0F1040070BC68
:1040740010F8012B002AFBD1A0EB010070470000CF
:104084002DE9F04F2DED048B89B083460392002374
:1040940003600D4615F8011B002900F0AE86DFED24
:1040A400A48A00F09CBE002607E05E2866D146F490
:1040B400805601E046F0400615462A4612F8010BE8
:1040C4003028F2D81F2838D9A0F12003102B34D877
:1040D40001A151F823F000BFB94000003F410000A6
:1040E4003F410000214100003F4100003F410000EA
:1040F4003F410000274100003F4100003F410000D4
:104104003F4100002D4100003F41000033410000C9
:104114003F4100003F4100003941000046F0800665
:10412400CAE746F40046C7E746F02006C4E746F06F
:104134001006C1E746F40076BEE72A281ED1039B89
:10414400191D03911F68002FBCBF7F4246F0100663
:104154001078AA1C27EAE7752E2824D00027742893
:1041640045D07A2843D06C2800F0C2804C2800F057
:10417400C580682800F0D38091463BE0A0F130036D
:10418400DBB2092B88BF0027E4D8002707EB870799
:10419400303800EB470712F8010BA0F13003DBB213
:1041A400092BF3D9D6E710782A280AD1039B191DC5
:1041B40003911F6850780232002FD0DB46F48076DA
:1041C400CDE70132A0F13003DBB2092B88BF002711
:1041D400F4D8002707EB8707303800EB470712F8BD
:1041E400010BA0F13003DBB2092BF3D9E4E79146CC
:1041F40019F8010B782800F28480DFE810F010062B
:10420400820082008200820082008200820082009A
:10421400820082008200820082008200820082008A
:10422400820082008200820082008200820082007A
:10423400820082008200820082008200820082006A
:104244008200820082008200A30082008200820039
:10425400820082008200820082008200820082004A
:10426400820082008200820082008200820082003A
:10427400820082008200820082008200820082002A
:104284008200820082008200C401E101E601820012
:10429400820082008200820082008200820082000A
:1042A40082008200820082008200820082001E015D
:1042B40082008200820082008200820082008200EA
:1042C40082008200A9005301C601E301E8018200D3
:1042D40053018200820082008200B900410104017E
:1042E40082008200CE0082004C0182008200200104
:1042F400914619F8010B46F001067BE746F00106EA
:1043040091460C4B1C68002C00F0658503AB0193AF
:1043140000972B4632465946A04700F05CBD107802
:10432400682809D002F1010946F0040662E700BFDB
:104334000000C8424C12002046F0080602F10209AF
:10434400507857E725215846FFF730FD00F043BD6C
:10435400039B1A1D03921C78013D5A462946304698
:10436400FFF74CFD21465846FFF720FDB0463AE0E2
:1043740016F0080F08D0DBF80020039B191D0391E9
:104384001B681A7000F027BD039B1A1D03921B685B
:10439400DBF800201A6000F01EBD039B1A1D039277
:1043A4001C688C4B002C08BF1C4626F4007816F4BD
:1043B400807F23D039462046FFF794FD0646AD1B87
:1043C4005A4629464046FFF719FD06F1FF3A56B111
:1043D4002746344417F8011B5846FFF7E7FCBC4254
:1043E400F8D14FF0FF3A18F0100F00F0F4845A4659
:1043F40029462020FFF7F4FC00F0EDBC2046FFF72F
:104404000EFE0646DBE7039B1A1D03921B6816F09B
:10441400800F0CBF0024232446F4807608271A4614
:10442400002B00F0B48404AB4FF0000806F40050F5
:10443400DFF8A4C1A64600F06ABC46F4005616F0A4
:10444400800F1BD043F2780443F25803782818BF36
:104454001C4616F4807F01D026F4007616F4804FB3
:1044640032D0039B1A1D03921B6816F0040F1FD051
:104474001BB2002B20DA5B422D242DE00024E8E758
:1044840016F0800F0CBF0024302416F4807FE5D092
:1044940026F40076E2E716F4807F07D026F400764F
:1044A4000024DBE746F480460024D7E70024D5E760
:1044B40016F0080FDDD0DBB216F0200F61D116F034
:1044C400400F18BF202407E0039B1A1D03921B68AA
:1044D40016F0040F50D09BB216F4807F00F0E683F0
:1044E40026F400765838202800F23B8401A252F8C2
:1044F40020F000BF23440000674D0000674D00001A
:10450400674D0000674D0000674D0000674D0000D7
:10451400674D0000674D0000674D0000674D0000C7
:10452400674D0000DD4C0000674D0000674D000042
:10453400674D0000674D0000DD4C0000674D000032
:10454400674D0000674D0000674D0000674D000097
:10455400B54C000023440000674D0000674D000087
:10456400674D0000674D0000DD4C0000674D000002
:10457400674D00002344000016F0080FACD0DBB2F6
:10458400AAE72B24A8E746F4005646F48066039B6A
:10459400073323F0070303F108020392D3E9000170
:1045A400FFF7D2FA08EE100A16F4807F16D0B7B9D6
:1045B40006F44067B7F5406F14BF002701270EE0EB
:1045C40046F4005646F40066E1E746F4005646F425
:1045D4004066DCE77C560000505600000627B0EE2B
:1045E400480AFFF7DBFA002840F0BB80B0EE480A27
:1045F400FFF7DEFA8046002840F0CC80B0EE480A8F
:10460400FFF7E0FA002840F0CE8018EE103A08EEEA
:10461400103A07A800EE103AFFF716FB079B03EBCE
:104624004303CA4A82FB0312DB17C3EBA2030793BB
:10463400B5EE408AF1EE10FA40F0BF8006F4406413
:10464400B4F5806F0AD0B4F5406F40F06E81079BDB
:10465400BB4203DA13F1040F80F2678107984042EA
:10466400FFF782FB28EE008A8DED028AB5EE408AC0
:10467400F1EE10FA36D0B0EE480AFFF78FFA0028B0
:1046840040F0B180F2EE047AB4EEE78AF1EE10FA6B
:104694000FDB079B0133F2EE047A1A4688EE278A71
:1046A4000133B4EEE78AF1EE10FAF6DA8DED028A00
:1046B4000792DDED027AB7EE007AF4EEC77AF1EEF6
:1046C40010FA0FD5079B013BF2EE046A1A4667EE17
:1046D400A67A013BF4EEC77AF1EE10FAF6D4CDEDEA
:1046E400027A079227B1B4F5406F08BF07F1FF378C
:1046F4007842FFF739FBF6EE007A60EE277A9DEDFB
:10470400027A77EE877AB2EE047AF4EEC77AF1EEA3
:1047140010FA80F28180B0EE678A002F00F0918059
:1047240006F40863B3F5006F7ED026F400630293A9
:104734007B1DED1A013D16F4805F00F0F380079AAB
:10474400834B83FB0213A3EBE27303EB4303D31A00
:104754000233042B00F2E480DFE803F099DA96993F
:10476400DA00B5EEC08AF1EE10FA0CD416F4005F4C
:10477400784C794B08BF1C4616F0200F08BF013453
:1047840026F4807611E616F4005F744C744B08BF6F
:104794001C46F5E716F4005F724C734B08BF1C46C9
:1047A40026F4807601E646F06006F1EE487A17EECC
:1047B400903A2CE7079B0133079307980130FFF7E2
:1047C400D3FAB4EEC08AF1EE10FAF3DC02E0079BF0
:1047D400013B07930798FFF7C7FAB4EEC08AF1EEDE
:1047E40010FAF4D42AE7B5EEC08AF1EE10FA0CD42C
:1047F40016F4005F574C584B08BF1C4616F0200FA8
:1048040008BF013426F48076CFE516F4005F534CDC
:10481400534B08BF1C46F5E7079B01330793B2EEE1
:10482400047A87EE878A78E7092FA8BF09273846D4
:10483400FFF79AFA60EE087AFCEEE77A17EE903A00
:104844004BB926F400630293053D16F080073FF44C
:1048540072AF47466EE7454AA2FB0312D20802EB49
:104864008202B3EB420F7FF460AF4049A1FB032304
:10487400DB08013FE5D0A1FB0302D20802EB820270
:10488400B3EB420FF2D050E74FF0010808E0F2EE2C
:10489400047A27EE888A013A0792013D4FF0020814
:1048A40027EAE77716F0600F18BF05F1FF35079880
:1048B400FFF7B1FA6328C8BF05F1FF35F0EE487A77
:1048C400BCEEC87A17EE104AB8EE478A37EEC88AAB
:1048D40025EAE57A029B13F4047F00F0D580029B5D
:1048E40013F0200F00F0DE8013F0400F14BF2D21D1
:1048F4002B215846FFF75AFA029B13F0100F00F0D1
:10490400DB801B4E08F10055013D06EBC505EAE0CE
:1049140028EE888A023A0792023D4FF00308BFE767
:10492400D046BDE74FF00108BCE716F4806F3ED0D7
:10493400079B0E2B3ADC0133FC1A092CA8BF09246F
:1049440016F0800F16D0274631E000BF6766666612
:1049540056555555945600009C5600008456000048
:104964008C560000A4560000A8560000CDCCCCCC38
:10497400B0560000BB426BD0F6EE009AB2EE049A39
:104984002046FFF7F1F928EE000A30EE290AFFF776
:1049940023F9F0EE490A00F085FAB5EE400AF1EE8B
:1049A40010FA57D1013CEBD1274600E0474626F4E4
:1049B40080630293079B7842A3F108028242C8BF36
:1049C400A3F10900FFF7D0F94FF0FF30FFF75AF9D0
:1049D40038EE008AB0EE489A07980130FFF7C4F920
:1049E400B4EEC08AF1EE10FA02DB079B01330793A1
:1049F4000798002840DB09282EDCFCEEC97A17EE64
:104A0400904AB8EE678A39EE488A00230793204615
:104A14000021092C35D9DFF82CC44FF0010808F126
:104A24000108FCE90223994208BF9042F7D207EB40
:104A34000803079A1344ED1A06F080033B4318BF9A
:104A440005F1FF3516F0600F18BF05F1FF353FE79C
:104A54002746ACE72746AAE7A0F109030793C0F16C
:104A64000900FFF781F929EE009AFCEEC97A17EEE6
:104A7400904A08EE108ACAE7002407944FF0010810
:104A8400D5E74FF00108D2E7002D7FF728AF2025A6
:104A94005646013E29465846FFF788F9002EF8D1BC
:104AA400B2461CE7029B13F0400F3FF425AF2021D0
:104AB4005846FFF77BF91FE7BAF1000F3FF421AF27
:104AC40030255646013E29465846FFF76FF9002E19
:104AD400F8D1B24615E74FF0300C61465846FFF75F
:104AE40065F9B04515D0D5E90023A846083D002155
:104AF400994208BF9442EED34FF0300C0CF1010CF4
:104B04005FFA8CFCA41A0021994208BF9442F5D2A2
:104B1400E3E7029B13F4006449D1002F55D1029BB3
:104B240013F0800F40F07E81029B13F4806F2FD02E
:104B340013F4005F14BF452165215846FFF736F989
:104B4400079B002BC0F294802B215846FFF72EF9C7
:104B54000799632900F394800799B64C84FB0132CA
:104B6400C917C1EBA2013031C9B25846FFF71EF98B
:104B7400079B84FB0324D917C1EBA40101EB81013A
:104B8400A3EB410303F13001C9B25846FFF70EF914
:104B9400BAF1000F00F01F8120245546013D214643
:104BA4005846FFF703F9002DF8D1AA4613E1079BF5
:104BB400002BB2DD3025013B079329465846FFF709
:104BC400F5F8079B002BF6DCA7E72E215846FFF7E4
:104BD400EDF83D46092FA8BF092525EAE5757F1B99
:104BE4008CB10798281AFFF7BFF820EE088AFCEE6C
:104BF400C87A17EE904A7DB305F10055013D8E4BFE
:104C040003EBC50519E02846FFF7AEF820EE088A45
:104C1400FCEEC87A17EE904AEDE70CF1010C5FFA4E
:104C24008CFCA41A0021994208BF9442F5D2614633
:104C34005846FFF7BBF846450ED0D5E90023A846F1
:104C4400083D0021994208BF944202D34FF0300C32
:104C5400E3E74FF0300CEAE7002F3FF465AF302470
:104C6400013F21465846FFF7A1F8002FF8D15BE732
:104C74002D215846FFF79AF8079B5B42079367E795
:104C84006E4C84FB0132C917C1EB62113031C9B2D9
:104C94005846FFF78BF8079A84FB0231D317C3EB0E
:104CA4006113642101FB1323079355E7012719E4DA
:104CB4001A464FF00008002B55D004A94FF0000805
:104CC40003F00703303301F8013B08F10108D2086F
:104CD4001346002AF4D146E019464FF00008002B91
:104CE40041D04FF0000806F4004E4FF02C0ADFF8D4
:104CF40058C17346A6461C4624E002F00F01504CEE
:104D0400615C03F8011B08F10108120906D00028B0
:104D1400F3D002F00F011CF80110F2E7744622E010
:104D240008AB03EB0800ACFB0132D20802EB8203B0
:104D3400A1EB4303303300F8103C08F101080929C2
:104D44000DD91146002CEBD008F00303032BE7D157
:104D540008AB434403F810AC08F10108E0E77446DB
:104D640001E04FF00008A7EB080727EAE777ED1BFF
:104D7400A5EB0805FF2C0DD9023DC4F307215846C5
:104D8400FFF714F8E1B25846FFF710F804E04FF0CB
:104D94000008E8E7002C4BD15A4629463046FFF775
:104DA4002DF85A4639463020FFF71AF8B8F1010AAF
:104DB4000ED404AB54461C449846217827465846E2
:104DC400FEF7F4FF444504F1FF34F6D14FF0FF3A07
:104DD40016F0100F0BD14D4615F8011B69B12529AA
:104DE4003FF461A95846FEF7E1FFA946F3E75A46A6
:104DF40029462020FEF7F4FFEDE7DBF808303BB14D
:104E0400DBF80020DBF804108A423CBF00219954EF
:104E1400DBF8000009B0BDEC048BBDE8F08F4FF067
:104E2400FF30F7E72E215846FEF7C0FF3D46D6E691
:104E3400013DA7E767666666B05600001F85EB5123
:104E440040560000B8560000CDCCCCCCDFED137A30
:104E5400B4EE670AF1EE10FA12D010EE102AC2F383
:104E6400C7537F3B11D4162B12DC0D4921FA03F3EF
:104E740022EA030207EE902A026030EE670A7047C6
:104E8400C0ED007AB0EE670A7047C0ED007A704753
:104E940080ED000AB0EE670A704700BF0000000012
:104EA400FFFF7F0000B52DED028BF5EE400AF1EE19
:104EB40010FA83B04BD0B0EE608AF0EE408AFEF771
:104EC40077FE30B1B0EE680A03B0BDEC028B5DF83A
:104ED40004FBB0EE480AFEF76BFE002843D1F5EE62
:104EE400408AF1EE10FAEDD0B0EE680AFEF756FEF5
:104EF40000283FD1B0EE480AFEF750FE0028E1D169
:104F0400B0EE480AFEF764FEB0EE408A88EE880AE6
:104F140001A8FFF79BFFDDED017AF5EEC08AB0EE44
:104F2400680AF1EE10FAA8EE670AB1EE487A24DDB9
:104F3400B4EEC08AF1EE10FA98BF30EE480AB5EE2E
:104F4400C00AF1EE10FABFD530EE080ABCE7FEF74E
:104F540077FF114B9FED110A1B68036003B0BDEC92
:104F6400028B5DF804FBB0EE480A03B0BDEC028B83
:104F74005DF804FB9FED090AA6E7B4EEC70AF1EE5B
:104F840010FA98BF30EE080AB5EEC00AF1EE10FA36
:104F94009ADD30EE480A97E7605600000000C07FB3
:104FA400B4080020A0080020040000000400000051
:044FB40001000000F8
:104FB800C651000000000000CC51000000000000B5
:104FC800D351000000000000D7510000000000008D
:104FD800DB51000000000000E0510000000000006C
:104FE8008E50000000000303AC51000000000000D8
:104FF8009651000000000000F35300000000030376
:1050080060500000000000006C50000014000020F8
:105018008000002048010020500100208800002066
:1050280018000000C0080020C80B0020D80B002082
:08503800C80800203000000050
:10504000FFFFFFFFFFFFFFFFFFFFFFFFFFFFFFFF70
:1050500000000000000000000000D6010601000072
:105060000D05000071050000AD040000756172744B
:105070005F6C6F675F6261636B656E640042616362
:105080006B656E647320666C75736865640061702F
:1050900070000000740500207F000000F40500206F
:1050A0001B5B306D002573001B5B313B33316D00A2
:1050B00025734C6F67732064726F7070656420286D
:1050C00025642925730D0A003C25733E2025733A7B
:1050D0002000202530327800202020007C0025632D
:1050E000001B5B313B33306D001B5B313B33326D5A
:1050F000001B5B313B33336D001B5B313B33346D45
:10510000001B5B313B33356D001B5B313B33366D30
:10511000001B5B313B33376D007761726E696E67E0
:1051200000696E666F00646562756700A0500000DC
:10513000E1500000A8500000E9500000F1500000CC
:10514000F950000001510000095100001151000008
:10515000000000006A5100001951000021510000B8
:1051600026510000466174616C206572726F720096
:1051700053797374656D2072657365740000000067
:105180000338FDD87047303132333435363738394B
:105190004142434445467077725F6D676D7400000D
:1051A000A44F0000A44F000004000000636C6F6374
:1051B0006B00000000000000000000000000000084
:1051C0000338FDD87047434C4F434B004750494F7D
:1051D0005445005052530054574900554152540011
:1051E000554152544500416363656C657261746951
:1051F0006F6E205B6D675D3A25342E32660925346B
:105200002E32660925342E32660D0A000D0A5457D7
:1052100049206D6173746572206578616D706C658D
:1052200020737461727465642E200D0A0000000002
:105230000338FDD87047000084080020A44F000008
:1052400000000000003000400000000000000000EE
:105250005465726D696E616C005254540053454739
:105260004745520052656164206362207265672081
:10527000616464723A203078253032582C2072658F
:1052800073756C74202564005772697465206362BD
:105290002072656720616464723A2030782530326C
:1052A000582C20726573756C742025640053656EEC
:1052B000736F7220616464723A20307825303258FE
:1052C0000D0A526561642072656720616464723AF8
:1052D000203078253032582C20627974657320256F
:1052E00064004D656D6F7279206E6F7420616C6C17
:1052F0006F63617465642E005472616E73616374D0
:10530000696F6E206E6F74207363686564756C6579
:10531000642E0D0A53656E736F7220616464723A75
:1053200020307825303258204572726F7220636FBA
:1053300064653A2025640053656E736F7220616462
:1053400064723A203078253032582057726974657B
:10535000206C656E677468202564004D656D6F7202
:1053600079206E6F7420616C6C6F63617465642E5C
:105370002053656E736F7220616464723A203078D6
:1053800025303258004461746120746F6F206C6F57
:105390006E6720746F20636F70792E2053656E7373
:1053A0006F7220616464723A203078253032580D73
:1053B0000A526571756573746564207772697465E6
:1053C000206C656E6774683A2025642C206D6178C6
:1053D000206C656E6774683A2025640057726974A2
:1053E000652072656769737465723A20307825307C
:1053F0003258007477695F73656E736F72000000D6
:1054000043000000504F5349580000002020202046
:105410002020202020682828282820202020202024
:105420002020202020202020202020204810101084
:10543000101010101010101010101010848484849C
:105440008484848484841010101010101081818151
:1054500081818101010101010101010101010101BC
:10546000010101010101011010101010108282824F
:10547000828282020202020202020202020202028C
:105480000202020202020210101010200007032084
:10549000041702010857104080000000005400006B
:1054A000045500001856000053756E004D6F6E00D5
:1054B000547565005765640054687500467269004C
:1054C00053617400000000004A616E00466562008E
:1054D0004D617200417072004D6179004A756E0035
:1054E0004A756C0041756700536570004F63740026
:1054F0004E6F76004465630000000000414D00508F
:105500004D0000003C5600003856000038560000A0
:105510003856000038560000385600003856000053
:10552000385600003856000038560000FFFFFFFFD5
:10553000FFFFFFFFFFFFFFFFFFFF000078550000A8
:10554000A8540000B4550000C8540000FC540000EA
:105550005C5500000C56000068550000256D2F2595
:10556000642F257900000000256120256220256533
:10557000202554202559000053756E646179004D33
:105580006F6E646179005475657364617900576565
:10559000646E6573646179005468757273646179CF
:1055A000004672696461790053617475726461794F
:1055B000000000004A616E75617279004665627292
:1055C00075617279004D6172636800417072696C37
:1055D000004D6179004A756E65004A756C7900412D
:1055E00075677573740053657074656D62657200DC
:1055F0004F63746F626572004E6F76656D6265729F
:1056000000446563656D62657200000025483A25B7
:105610004D3A255300000000D13C0000ED3C000055
:10562000F93C0000053D0000213D00002D3D00003B
:10563000393D0000473D0000000000002E00000042
:1056400030313233343536373839616263646566F8
:1056500030313233343536373839414243444546A8
:1056600021000000000020410000C84200401C460C
:1056700020BCBE4CCA1B0E5AAEC59D74286E756CFC
:105680006C2900002D494E46000000002D696E6611
:10569000000000002B494E46000000002B696E669A
:1056A000000000004E414E006E616E0000000000E0
:1056B00001000000000000000A00000000000000DF
:1056C0006400000000000000E8030000000000008B
:1056D0001027000000000000A0860100000000006C
:1056E00040420F000000000080969800000000007B
:1056F00000E1F5050000000000CA9A3B0000000030
:1057000000E40B540200000000E876481700000097
:105710000010A5D4E800000000A0724E1809000097
:1057200000407A10F35A00000080C6A47E8D03006A
:105730000000C16FF286230000008A5D7845630196
:10574000000064A7B3B6E00D0000E8890423C78A0F
:105750000000000000200040000000000020004089
:105760000000000000000000FF00000038520000B0
:105770002C5000000090D0039C5400009C5400006A
:0C5780009C5400009C5400009C5400004D
:040000030000037581
:00000001FF
